:020000001528C1
:0C000600831221088A00200882000800F4
:1000120003208A110A128000840AA00A0319A10A85
:08002200D003031D09280800AA
:10002A0083169F01073083129900831605108510E5
:10003A00831205141A30DC00F830DD00DD0B2328AA
:10004A00DC0B2328000005101A30DC00F830DD0034
:10005A00DD0B2D28DC0B2D28000085140330DC0075
:10006A009730DD00DD0B3728DC0B37280000000055
:10007A0085100330DC009730DD00DD0B4228DC0BF5
:0A008A004228000000001D2849284C
:02400E00D631A9
:00000001FF
