:020000005D2879
:0E0006008312031321088A00200882000800DC
:100014008312031306102E30FC00F830FD00FD0B94
:100024001128FC0B1128000006140630FC00F830DF
:0E003400FD00FD0B1B28FC0B1B280000080024
:100042008312031306103230FC00DD30FD00FD0B7D
:100052002828FC0B28280000000006140330FC00AE
:100062001230FD00FD0B3328FC0B33280000080082
:100072008312031306103130FC000B30FD00FD0B20
:100082004028FC0B40280000000006140430FC004D
:10009200E430FD00FD0B4B28FC0B4B280000080050
:1000A20003208A110A128000840AA00A0319A10AF5
:0800B200F003031D51280800B2
:1000BA000730831203139F000330831685008601DD
:1000CA00033083128500860185186F28051C6F2866
:1000DA000A20762805187528851C75282120762877
:0600EA0039206928772887
:02400E004A2145
:00000001FF
