:020000001528C1
:0C00060083120D088A000C08820008001C
:1000120003208A110A128000840A8C0A03198D0AAD
:08002200C003031D09280800BA
:10002A008316860183128601861006118611063010
:10003A00CB001330CC00AD30CD00CD0B2228CC0B39
:10004A002228CB0B222800000000861006118615F4
:10005A000630CB001330CC00AD30CD00CD0B3328A9
:10006A00CC0B3328CB0B3328000000008610061572
:10007A0086110630CB001330CC00AD30CD00CD0B4D
:10008A004428CC0B4428CB0B4428000000008610DF
:10009A00061586150630CB001330CC00AD30CD00E6
:1000AA00CD0B5528CC0B5528CB0B5528000000004A
:1000BA008614061186110630CB001330CC00AD3001
:1000CA00CD00CD0B6628CC0B6628CB0B662800002A
:1000DA0000008614061186150630CB001330CC00BA
:1000EA00AD30CD00CD0B7728CC0B7728CB0B7728FA
:1000FA00000000008614061586110630CB00133066
:10010A00CC00AD30CD00CD0B8828CC0B8828CB0B8A
:10011A008828000000008614061586150630CB00D4
:10012A001330CC00AD30CD00CD0B9928CC0B9928DB
:0C013A00CB0B9928000000001928A22817
:02400E00FA3F77
:00000001FF
