:020000001628C0
:0E0006008312031323088A00220882000800D8
:1000140003208A110A128000840AA20A0319A30A7F
:08002400F003031D0A28080087
:10002C00FF3083120313A000A10183168601FF3059
:10003C0083128600200886008230FC00DD30FD0033
:10004C00FD0B2628FC0B2628000000002008F100E0
:10005C002108F200F10DF20D71107108A000720868
:10006C00A10000307206031D3D2800307106031DEF
:0C007C004228FF30A000A10120284328EA
:02400E006A2125
:00000001FF
